{
  "contractName": "ApiContract",
  "abi": [
    {
      "inputs": [
        {
          "internalType": "string",
          "name": "_intermediaryName",
          "type": "string"
        },
        {
          "internalType": "address",
          "name": "_intermediaryAddress",
          "type": "address"
        }
      ],
      "stateMutability": "nonpayable",
      "type": "constructor"
    },
    {
      "anonymous": false,
      "inputs": [
        {
          "indexed": true,
          "internalType": "address",
          "name": "buyer",
          "type": "address"
        },
        {
          "indexed": false,
          "internalType": "string",
          "name": "apiName",
          "type": "string"
        },
        {
          "indexed": false,
          "internalType": "uint256",
          "name": "amount",
          "type": "uint256"
        },
        {
          "indexed": false,
          "internalType": "uint256",
          "name": "timestamp",
          "type": "uint256"
        }
      ],
      "name": "MakeRequest",
      "type": "event"
    },
    {
      "anonymous": false,
      "inputs": [
        {
          "indexed": true,
          "internalType": "address",
          "name": "buyer",
          "type": "address"
        },
        {
          "indexed": true,
          "internalType": "address",
          "name": "seller",
          "type": "address"
        },
        {
          "indexed": false,
          "internalType": "uint256",
          "name": "amount",
          "type": "uint256"
        },
        {
          "indexed": false,
          "internalType": "uint256",
          "name": "timestamp",
          "type": "uint256"
        }
      ],
      "name": "Sale",
      "type": "event"
    },
    {
      "anonymous": false,
      "inputs": [
        {
          "indexed": true,
          "internalType": "address",
          "name": "receiver",
          "type": "address"
        },
        {
          "indexed": false,
          "internalType": "uint256",
          "name": "amount",
          "type": "uint256"
        },
        {
          "indexed": false,
          "internalType": "uint256",
          "name": "timestamp",
          "type": "uint256"
        }
      ],
      "name": "Withdrawal",
      "type": "event"
    },
    {
      "inputs": [],
      "name": "intermediaryAddress",
      "outputs": [
        {
          "internalType": "address",
          "name": "",
          "type": "address"
        }
      ],
      "stateMutability": "view",
      "type": "function",
      "constant": true
    },
    {
      "inputs": [],
      "name": "intermediaryName",
      "outputs": [
        {
          "internalType": "string",
          "name": "",
          "type": "string"
        }
      ],
      "stateMutability": "view",
      "type": "function",
      "constant": true
    },
    {
      "inputs": [
        {
          "internalType": "address",
          "name": "_seller",
          "type": "address"
        },
        {
          "internalType": "uint256",
          "name": "_priceOfRequests",
          "type": "uint256"
        },
        {
          "internalType": "string",
          "name": "_apiName",
          "type": "string"
        }
      ],
      "name": "createSale",
      "outputs": [
        {
          "internalType": "bool",
          "name": "success",
          "type": "bool"
        }
      ],
      "stateMutability": "payable",
      "type": "function",
      "payable": true
    },
    {
      "inputs": [
        {
          "internalType": "string",
          "name": "_apiName",
          "type": "string"
        },
        {
          "internalType": "string",
          "name": "_url",
          "type": "string"
        },
        {
          "internalType": "string",
          "name": "_bodyOfRequest",
          "type": "string"
        },
        {
          "internalType": "string",
          "name": "_method",
          "type": "string"
        },
        {
          "internalType": "string",
          "name": "_headers",
          "type": "string"
        }
      ],
      "name": "makeRequest",
      "outputs": [
        {
          "internalType": "bool",
          "name": "success",
          "type": "bool"
        }
      ],
      "stateMutability": "payable",
      "type": "function",
      "payable": true
    },
    {
      "inputs": [
        {
          "internalType": "address",
          "name": "key",
          "type": "address"
        },
        {
          "internalType": "string",
          "name": "apiName",
          "type": "string"
        }
      ],
      "name": "inspectSaleApi",
      "outputs": [
        {
          "components": [
            {
              "internalType": "string",
              "name": "apiName",
              "type": "string"
            },
            {
              "internalType": "uint256",
              "name": "numberOfRequests",
              "type": "uint256"
            },
            {
              "internalType": "bool",
              "name": "exists",
              "type": "bool"
            }
          ],
          "internalType": "struct ApiContract.ApiStruct",
          "name": "",
          "type": "tuple"
        }
      ],
      "stateMutability": "view",
      "type": "function",
      "constant": true
    },
    {
      "inputs": [
        {
          "internalType": "address",
          "name": "key",
          "type": "address"
        }
      ],
      "name": "inspectSale",
      "outputs": [
        {
          "internalType": "string",
          "name": "apiName",
          "type": "string"
        }
      ],
      "stateMutability": "view",
      "type": "function",
      "constant": true
    }
  ],
  "bytecode": "0x60806040523480156200001157600080fd5b5060405162001a5838038062001a5883398181016040528101906200003791906200034a565b81600190805190602001906200004f92919062000098565b50806000806101000a81548173ffffffffffffffffffffffffffffffffffffffff021916908373ffffffffffffffffffffffffffffffffffffffff160217905550505062000415565b828054620000a690620003df565b90600052602060002090601f016020900481019282620000ca576000855562000116565b82601f10620000e557805160ff191683800117855562000116565b8280016001018555821562000116579182015b8281111562000115578251825591602001919060010190620000f8565b5b50905062000125919062000129565b5090565b5b80821115620001445760008160009055506001016200012a565b5090565b6000604051905090565b600080fd5b600080fd5b600080fd5b600080fd5b6000601f19601f8301169050919050565b7f4e487b7100000000000000000000000000000000000000000000000000000000600052604160045260246000fd5b620001b18262000166565b810181811067ffffffffffffffff82111715620001d357620001d262000177565b5b80604052505050565b6000620001e862000148565b9050620001f68282620001a6565b919050565b600067ffffffffffffffff82111562000219576200021862000177565b5b620002248262000166565b9050602081019050919050565b60005b838110156200025157808201518184015260208101905062000234565b8381111562000261576000848401525b50505050565b60006200027e6200027884620001fb565b620001dc565b9050828152602081018484840111156200029d576200029c62000161565b5b620002aa84828562000231565b509392505050565b600082601f830112620002ca57620002c96200015c565b5b8151620002dc84826020860162000267565b91505092915050565b600073ffffffffffffffffffffffffffffffffffffffff82169050919050565b60006200031282620002e5565b9050919050565b620003248162000305565b81146200033057600080fd5b50565b600081519050620003448162000319565b92915050565b6000806040838503121562000364576200036362000152565b5b600083015167ffffffffffffffff81111562000385576200038462000157565b5b6200039385828601620002b2565b9250506020620003a68582860162000333565b9150509250929050565b7f4e487b7100000000000000000000000000000000000000000000000000000000600052602260045260246000fd5b60006002820490506001821680620003f857607f821691505b602082108114156200040f576200040e620003b0565b5b50919050565b61163380620004256000396000f3fe6080604052600436106100555760003560e01c80631216f0351461005a578063414faaa514610097578063457c6e43146100c75780637e0892fb146100f2578063914d192f1461012f578063ed04e4501461015f575b600080fd5b34801561006657600080fd5b50610081600480360381019061007c9190610ce3565b61018a565b60405161008e9190610da9565b60405180910390f35b6100b160048036038101906100ac9190610f00565b61025e565b6040516100be9190611022565b60405180910390f35b3480156100d357600080fd5b506100dc6106c5565b6040516100e9919061104c565b60405180910390f35b3480156100fe57600080fd5b5061011960048036038101906101149190611067565b6106e9565b6040516101269190611185565b60405180910390f35b610149600480360381019061014491906111d3565b610819565b6040516101569190611022565b60405180910390f35b34801561016b57600080fd5b50610174610a3c565b6040516101819190610da9565b60405180910390f35b6060600260008373ffffffffffffffffffffffffffffffffffffffff1673ffffffffffffffffffffffffffffffffffffffff16815260200190815260200160002060020180546101d990611271565b80601f016020809104026020016040519081016040528092919081815260200182805461020590611271565b80156102525780601f1061022757610100808354040283529160200191610252565b820191906000526020600020905b81548152906001019060200180831161023557829003601f168201915b50505050509050919050565b6000600260003373ffffffffffffffffffffffffffffffffffffffff1673ffffffffffffffffffffffffffffffffffffffff16815260200190815260200160002060050160009054906101000a900460ff166102ef576040517f08c379a00000000000000000000000000000000000000000000000000000000081526004016102e6906112ef565b60405180910390fd5b600260003373ffffffffffffffffffffffffffffffffffffffff1673ffffffffffffffffffffffffffffffffffffffff1681526020019081526020016000206007018660405161033f919061134b565b908152602001604051809103902060020160009054906101000a900460ff1661039d576040517f08c379a0000000000000000000000000000000000000000000000000000000008152600401610394906113ae565b60405180910390fd5b6000600260003373ffffffffffffffffffffffffffffffffffffffff1673ffffffffffffffffffffffffffffffffffffffff1681526020019081526020016000206003015490506000600260003373ffffffffffffffffffffffffffffffffffffffff1673ffffffffffffffffffffffffffffffffffffffff16815260200190815260200160002060010160009054906101000a900473ffffffffffffffffffffffffffffffffffffffff16905060006040518060c001604052808981526020013373ffffffffffffffffffffffffffffffffffffffff168152602001888152602001878152602001868152602001428152509050600381908060018154018082558091505060019003906000526020600020906006020160009091909190915060008201518160000190805190602001906104da929190610bab565b5060208201518160010160006101000a81548173ffffffffffffffffffffffffffffffffffffffff021916908373ffffffffffffffffffffffffffffffffffffffff160217905550604082015181600201908051906020019061053e929190610bab565b50606082015181600301908051906020019061055b929190610bab565b506080820151816004019080519060200190610578929190610bab565b5060a0820151816005015550506000600a606485610596919061142c565b6105a0919061145d565b9050600081856105b091906114b7565b90506105dc60008054906101000a900473ffffffffffffffffffffffffffffffffffffffff1683610aca565b506105e78482610aca565b506001600260003373ffffffffffffffffffffffffffffffffffffffff1673ffffffffffffffffffffffffffffffffffffffff1681526020019081526020016000206007018c60405161063a919061134b565b9081526020016040518091039020600101600082825461065a91906114eb565b925050819055503373ffffffffffffffffffffffffffffffffffffffff167f344d47cdaf9777c5d92e01410e5ca57bd933dd69210505d4d81dafc0140728378c83426040516106ab93929190611550565b60405180910390a260019550505050505095945050505050565b60008054906101000a900473ffffffffffffffffffffffffffffffffffffffff1681565b6106f1610c31565b600260008473ffffffffffffffffffffffffffffffffffffffff1673ffffffffffffffffffffffffffffffffffffffff16815260200190815260200160002060070182604051610741919061134b565b908152602001604051809103902060405180606001604052908160008201805461076a90611271565b80601f016020809104026020016040519081016040528092919081815260200182805461079690611271565b80156107e35780601f106107b8576101008083540402835291602001916107e3565b820191906000526020600020905b8154815290600101906020018083116107c657829003601f168201915b50505050508152602001600182015481526020016002820160009054906101000a900460ff161515151581525050905092915050565b60008060009050600060405180606001604052808581526020018381526020016001151581525090506000600260003373ffffffffffffffffffffffffffffffffffffffff1673ffffffffffffffffffffffffffffffffffffffff1681526020019081526020016000209050338160000160006101000a81548173ffffffffffffffffffffffffffffffffffffffff021916908373ffffffffffffffffffffffffffffffffffffffff160217905550868160010160006101000a81548173ffffffffffffffffffffffffffffffffffffffff021916908373ffffffffffffffffffffffffffffffffffffffff16021790555084816002019080519060200190610923929190610bab565b5085816003018190555082816004018190555060018160050160006101000a81548160ff02191690831515021790555042816006018190555081816007018660405161096f919061134b565b90815260200160405180910390206000820151816000019080519060200190610999929190610bab565b506020820151816001015560408201518160020160006101000a81548160ff0219169083151502179055509050508673ffffffffffffffffffffffffffffffffffffffff163373ffffffffffffffffffffffffffffffffffffffff167f681ddc67ea8796d2489979f5fc2ea2eb0f2d44ff3f11f061a191928a1f3d9a068842604051610a2692919061158e565b60405180910390a3600193505050509392505050565b60018054610a4990611271565b80601f0160208091040260200160405190810160405280929190818152602001828054610a7590611271565b8015610ac25780601f10610a9757610100808354040283529160200191610ac2565b820191906000526020600020905b815481529060010190602001808311610aa557829003601f168201915b505050505081565b6000610ad68383610b30565b8273ffffffffffffffffffffffffffffffffffffffff167fdf273cb619d95419a9cd0ec88123a0538c85064229baa6363788f743fff90deb8342604051610b1e92919061158e565b60405180910390a26001905092915050565b60008273ffffffffffffffffffffffffffffffffffffffff1682604051610b56906115e8565b60006040518083038185875af1925050503d8060008114610b93576040519150601f19603f3d011682016040523d82523d6000602084013e610b98565b606091505b5050905080610ba657600080fd5b505050565b828054610bb790611271565b90600052602060002090601f016020900481019282610bd95760008555610c20565b82601f10610bf257805160ff1916838001178555610c20565b82800160010185558215610c20579182015b82811115610c1f578251825591602001919060010190610c04565b5b509050610c2d9190610c54565b5090565b604051806060016040528060608152602001600081526020016000151581525090565b5b80821115610c6d576000816000905550600101610c55565b5090565b6000604051905090565b600080fd5b600080fd5b600073ffffffffffffffffffffffffffffffffffffffff82169050919050565b6000610cb082610c85565b9050919050565b610cc081610ca5565b8114610ccb57600080fd5b50565b600081359050610cdd81610cb7565b92915050565b600060208284031215610cf957610cf8610c7b565b5b6000610d0784828501610cce565b91505092915050565b600081519050919050565b600082825260208201905092915050565b60005b83811015610d4a578082015181840152602081019050610d2f565b83811115610d59576000848401525b50505050565b6000601f19601f8301169050919050565b6000610d7b82610d10565b610d858185610d1b565b9350610d95818560208601610d2c565b610d9e81610d5f565b840191505092915050565b60006020820190508181036000830152610dc38184610d70565b905092915050565b600080fd5b600080fd5b7f4e487b7100000000000000000000000000000000000000000000000000000000600052604160045260246000fd5b610e0d82610d5f565b810181811067ffffffffffffffff82111715610e2c57610e2b610dd5565b5b80604052505050565b6000610e3f610c71565b9050610e4b8282610e04565b919050565b600067ffffffffffffffff821115610e6b57610e6a610dd5565b5b610e7482610d5f565b9050602081019050919050565b82818337600083830152505050565b6000610ea3610e9e84610e50565b610e35565b905082815260208101848484011115610ebf57610ebe610dd0565b5b610eca848285610e81565b509392505050565b600082601f830112610ee757610ee6610dcb565b5b8135610ef7848260208601610e90565b91505092915050565b600080600080600060a08688031215610f1c57610f1b610c7b565b5b600086013567ffffffffffffffff811115610f3a57610f39610c80565b5b610f4688828901610ed2565b955050602086013567ffffffffffffffff811115610f6757610f66610c80565b5b610f7388828901610ed2565b945050604086013567ffffffffffffffff811115610f9457610f93610c80565b5b610fa088828901610ed2565b935050606086013567ffffffffffffffff811115610fc157610fc0610c80565b5b610fcd88828901610ed2565b925050608086013567ffffffffffffffff811115610fee57610fed610c80565b5b610ffa88828901610ed2565b9150509295509295909350565b60008115159050919050565b61101c81611007565b82525050565b60006020820190506110376000830184611013565b92915050565b61104681610ca5565b82525050565b6000602082019050611061600083018461103d565b92915050565b6000806040838503121561107e5761107d610c7b565b5b600061108c85828601610cce565b925050602083013567ffffffffffffffff8111156110ad576110ac610c80565b5b6110b985828601610ed2565b9150509250929050565b600082825260208201905092915050565b60006110df82610d10565b6110e981856110c3565b93506110f9818560208601610d2c565b61110281610d5f565b840191505092915050565b6000819050919050565b6111208161110d565b82525050565b61112f81611007565b82525050565b6000606083016000830151848203600086015261115282826110d4565b91505060208301516111676020860182611117565b50604083015161117a6040860182611126565b508091505092915050565b6000602082019050818103600083015261119f8184611135565b905092915050565b6111b08161110d565b81146111bb57600080fd5b50565b6000813590506111cd816111a7565b92915050565b6000806000606084860312156111ec576111eb610c7b565b5b60006111fa86828701610cce565b935050602061120b868287016111be565b925050604084013567ffffffffffffffff81111561122c5761122b610c80565b5b61123886828701610ed2565b9150509250925092565b7f4e487b7100000000000000000000000000000000000000000000000000000000600052602260045260246000fd5b6000600282049050600182168061128957607f821691505b6020821081141561129d5761129c611242565b5b50919050565b7f596f7520646f6e742068617665206120636f6e74726163740000000000000000600082015250565b60006112d9601883610d1b565b91506112e4826112a3565b602082019050919050565b60006020820190508181036000830152611308816112cc565b9050919050565b600081905092915050565b600061132582610d10565b61132f818561130f565b935061133f818560208601610d2c565b80840191505092915050565b6000611357828461131a565b915081905092915050565b7f596f7520646f6e74206861766520415049000000000000000000000000000000600082015250565b6000611398601183610d1b565b91506113a382611362565b602082019050919050565b600060208201905081810360008301526113c78161138b565b9050919050565b7f4e487b7100000000000000000000000000000000000000000000000000000000600052601260045260246000fd5b7f4e487b7100000000000000000000000000000000000000000000000000000000600052601160045260246000fd5b60006114378261110d565b91506114428361110d565b925082611452576114516113ce565b5b828204905092915050565b60006114688261110d565b91506114738361110d565b9250817fffffffffffffffffffffffffffffffffffffffffffffffffffffffffffffffff04831182151516156114ac576114ab6113fd565b5b828202905092915050565b60006114c28261110d565b91506114cd8361110d565b9250828210156114e0576114df6113fd565b5b828203905092915050565b60006114f68261110d565b91506115018361110d565b9250827fffffffffffffffffffffffffffffffffffffffffffffffffffffffffffffffff03821115611536576115356113fd565b5b828201905092915050565b61154a8161110d565b82525050565b6000606082019050818103600083015261156a8186610d70565b90506115796020830185611541565b6115866040830184611541565b949350505050565b60006040820190506115a36000830185611541565b6115b06020830184611541565b9392505050565b600081905092915050565b50565b60006115d26000836115b7565b91506115dd826115c2565b600082019050919050565b60006115f3826115c5565b915081905091905056fea26469706673582212200192e7355368779c075f1453ef8f25e759e502a6dbc63f1603480548e4ec7ee664736f6c634300080b0033",
  "immutableReferences": {},
  "source": "// SPDX-License-Identifier: MIT\n\npragma solidity ^0.8.0;\n\ncontract ApiContract {\n    address public intermediaryAddress;\n    string public intermediaryName;\n\n    event Sale(\n        address indexed buyer,\n        address indexed seller,\n        uint256 amount,\n        uint256 timestamp\n    );\n\n    event Withdrawal(\n        address indexed receiver,\n        uint256 amount,\n        uint256 timestamp\n    );\n\n    event MakeRequest(\n        address indexed buyer,\n        string apiName,\n        uint256 amount,\n        uint256 timestamp\n    );\n\n    struct ApiStruct {\n        string apiName;\n        uint256 numberOfRequests;\n        bool exists;\n    }\n\n    struct SaleStruct {\n        address buyer;\n        address seller;\n        string apiName;\n        uint256 priceOfRequests;\n        uint256 numberOfRequests;\n        bool exists;\n        uint256 timestamp;\n        mapping(string => ApiStruct) apis;\n    }\n\n    struct CallingApi {\n        string url;\n        address caller;\n        string bodyOfRequest;\n        string method;\n        string headers;\n        uint256 timestamp;\n    }\n\n    mapping(address => SaleStruct) sales;\n    CallingApi[] callsapi;\n\n    constructor(string memory _intermediaryName, address _intermediaryAddress) {\n        intermediaryName = _intermediaryName;\n        intermediaryAddress = _intermediaryAddress;\n    }\n\n    function createSale(\n        address _seller,\n        uint256 _priceOfRequests,\n        string memory _apiName\n    ) public payable returns (bool success)\n    {\n        uint256 _numberOfRequests = 0;\n\n        ApiStruct memory api = ApiStruct(\n            _apiName,\n            _numberOfRequests,\n            true\n        );\n\n        SaleStruct storage sale = sales[msg.sender];\n        sale.buyer = msg.sender;\n        sale.seller = _seller;\n        sale.apiName = _apiName;\n        sale.priceOfRequests = _priceOfRequests;\n        sale.numberOfRequests = _numberOfRequests;\n        sale.exists = true;\n        sale.timestamp = block.timestamp;\n        sale.apis[_apiName] = api;\n\n        emit Sale(msg.sender, _seller, _priceOfRequests, block.timestamp);\n\n        return true;\n    }\n\n    function makeRequest(\n        string memory _apiName,\n        string memory _url,\n        string memory _bodyOfRequest,\n        string memory _method,\n        string memory _headers\n    ) public payable returns (bool success) {\n        require(sales[msg.sender].exists, \"You dont have a contract\");\n        require(sales[msg.sender].apis[_apiName].exists, \"You dont have API\");\n        uint256 priceOfRequests = sales[msg.sender].priceOfRequests;\n        address seller = sales[msg.sender].seller;\n\n        CallingApi memory callapi = CallingApi(\n            _url,\n            msg.sender,\n            _bodyOfRequest,\n            _method,\n            _headers,\n            block.timestamp\n        );\n\n        callsapi.push(callapi);\n\n        uint256 tax = (priceOfRequests / 100) * 10;\n        uint256 finalValue = priceOfRequests - tax;\n\n        withdrawMoneyTo(intermediaryAddress, tax);\n        withdrawMoneyTo(seller, finalValue);\n\n        sales[msg.sender].apis[_apiName].numberOfRequests += 1;\n\n        emit MakeRequest(msg.sender, _apiName, finalValue, block.timestamp);\n        return true;\n    }\n\n    // TODO: Testar com msg.sender, se der ruim voltar como argumento\n    function inspectSaleApi(address key, string memory apiName) public view returns (ApiStruct memory) {\n        return (sales[key].apis[apiName]);\n    }\n\n    function inspectSale(address key) public view returns (string memory apiName) {\n        return sales[key].apiName;\n    }\n\n    // function inspectSaleLength(address key) public view returns (uint) {\n    //     return sales[key].length;\n    // }\n\n    // function inspectSaleSpecific(address key, string calldata apiName) public view returns(SaleStruct memory) {\n    //     uint256 saleLength = inspectSaleLength(key);\n    //     for (uint i=0; i < saleLength; i++){\n    //         if(keccak256(sales[key][i].apiName) == keccak256(apiName)) {\n    //             return sales[key][i];\n    //         }          \n    //     }  \n    // }\n\n    // Sends ethers to a specified address\n    function _payTo(address _to, uint256 _amount) internal {\n        (bool success1, ) = payable(_to).call{value: _amount}(\"\");\n        require(success1);\n    }\n\n    function withdrawMoneyTo(address receiver, uint256 amount)\n        internal\n        returns (bool success)\n    {\n\n        _payTo(receiver, amount);\n\n        // Captures transfer data on event\n        emit Withdrawal(receiver, amount, block.timestamp);\n        return true;\n    }\n\n}",
  "sourcePath": "/home/kainan/Documents/TCC/tcc-python/api-monetization-backend-python/contracts/ApiContract.sol",
  "compiler": {
    "name": "solc",
    "version": "0.8.11+commit.d7f03943.Emscripten.clang"
  },
  "schemaVersion": "3.4.5",
  "updatedAt": "2022-09-28T02:06:50.017Z",
  "networkType": "ethereum",
  "devdoc": {
    "kind": "dev",
    "methods": {},
    "version": 1
  },
  "userdoc": {
    "kind": "user",
    "methods": {},
    "version": 1
  }
}