{
  "contractName": "ApiContract",
  "abi": [
    {
      "inputs": [
        {
          "internalType": "string",
          "name": "_intermediaryName",
          "type": "string"
        },
        {
          "internalType": "address",
          "name": "_intermediaryAddress",
          "type": "address"
        }
      ],
      "stateMutability": "nonpayable",
      "type": "constructor"
    },
    {
      "anonymous": false,
      "inputs": [
        {
          "indexed": true,
          "internalType": "address",
          "name": "buyer",
          "type": "address"
        },
        {
          "indexed": false,
          "internalType": "string",
          "name": "apiName",
          "type": "string"
        },
        {
          "indexed": false,
          "internalType": "uint256",
          "name": "amount",
          "type": "uint256"
        },
        {
          "indexed": false,
          "internalType": "uint256",
          "name": "timestamp",
          "type": "uint256"
        }
      ],
      "name": "MakeRequest",
      "type": "event"
    },
    {
      "anonymous": false,
      "inputs": [
        {
          "indexed": true,
          "internalType": "address",
          "name": "buyer",
          "type": "address"
        },
        {
          "indexed": true,
          "internalType": "address",
          "name": "seller",
          "type": "address"
        },
        {
          "indexed": false,
          "internalType": "uint256",
          "name": "amount",
          "type": "uint256"
        },
        {
          "indexed": false,
          "internalType": "uint256",
          "name": "timestamp",
          "type": "uint256"
        }
      ],
      "name": "Sale",
      "type": "event"
    },
    {
      "anonymous": false,
      "inputs": [
        {
          "indexed": true,
          "internalType": "address",
          "name": "receiver",
          "type": "address"
        },
        {
          "indexed": false,
          "internalType": "uint256",
          "name": "amount",
          "type": "uint256"
        },
        {
          "indexed": false,
          "internalType": "uint256",
          "name": "timestamp",
          "type": "uint256"
        }
      ],
      "name": "Withdrawal",
      "type": "event"
    },
    {
      "inputs": [],
      "name": "intermediaryAddress",
      "outputs": [
        {
          "internalType": "address",
          "name": "",
          "type": "address"
        }
      ],
      "stateMutability": "view",
      "type": "function",
      "constant": true
    },
    {
      "inputs": [],
      "name": "intermediaryName",
      "outputs": [
        {
          "internalType": "string",
          "name": "",
          "type": "string"
        }
      ],
      "stateMutability": "view",
      "type": "function",
      "constant": true
    },
    {
      "inputs": [
        {
          "internalType": "address",
          "name": "_seller",
          "type": "address"
        },
        {
          "internalType": "uint256",
          "name": "_priceOfRequests",
          "type": "uint256"
        },
        {
          "internalType": "string",
          "name": "_apiName",
          "type": "string"
        }
      ],
      "name": "createSale",
      "outputs": [
        {
          "internalType": "bool",
          "name": "success",
          "type": "bool"
        }
      ],
      "stateMutability": "payable",
      "type": "function",
      "payable": true
    },
    {
      "inputs": [
        {
          "internalType": "address",
          "name": "key",
          "type": "address"
        },
        {
          "internalType": "string",
          "name": "_apiName",
          "type": "string"
        }
      ],
      "name": "makeRequest",
      "outputs": [
        {
          "internalType": "bool",
          "name": "success",
          "type": "bool"
        }
      ],
      "stateMutability": "payable",
      "type": "function",
      "payable": true
    },
    {
      "inputs": [
        {
          "internalType": "address",
          "name": "key",
          "type": "address"
        },
        {
          "internalType": "string",
          "name": "apiName",
          "type": "string"
        }
      ],
      "name": "inspectSaleApi",
      "outputs": [
        {
          "components": [
            {
              "internalType": "string",
              "name": "apiName",
              "type": "string"
            },
            {
              "internalType": "uint256",
              "name": "numberOfRequests",
              "type": "uint256"
            },
            {
              "internalType": "bool",
              "name": "exists",
              "type": "bool"
            }
          ],
          "internalType": "struct ApiContract.ApiStruct",
          "name": "",
          "type": "tuple"
        }
      ],
      "stateMutability": "view",
      "type": "function",
      "constant": true
    },
    {
      "inputs": [
        {
          "internalType": "address",
          "name": "key",
          "type": "address"
        }
      ],
      "name": "inspectSale",
      "outputs": [
        {
          "internalType": "string",
          "name": "apiName",
          "type": "string"
        }
      ],
      "stateMutability": "view",
      "type": "function",
      "constant": true
    }
  ],
  "bytecode": "0x60806040523480156200001157600080fd5b50604051620018c2380380620018c283398181016040528101906200003791906200034a565b81600190805190602001906200004f92919062000098565b50806000806101000a81548173ffffffffffffffffffffffffffffffffffffffff021916908373ffffffffffffffffffffffffffffffffffffffff160217905550505062000415565b828054620000a690620003df565b90600052602060002090601f016020900481019282620000ca576000855562000116565b82601f10620000e557805160ff191683800117855562000116565b8280016001018555821562000116579182015b8281111562000115578251825591602001919060010190620000f8565b5b50905062000125919062000129565b5090565b5b80821115620001445760008160009055506001016200012a565b5090565b6000604051905090565b600080fd5b600080fd5b600080fd5b600080fd5b6000601f19601f8301169050919050565b7f4e487b7100000000000000000000000000000000000000000000000000000000600052604160045260246000fd5b620001b18262000166565b810181811067ffffffffffffffff82111715620001d357620001d262000177565b5b80604052505050565b6000620001e862000148565b9050620001f68282620001a6565b919050565b600067ffffffffffffffff82111562000219576200021862000177565b5b620002248262000166565b9050602081019050919050565b60005b838110156200025157808201518184015260208101905062000234565b8381111562000261576000848401525b50505050565b60006200027e6200027884620001fb565b620001dc565b9050828152602081018484840111156200029d576200029c62000161565b5b620002aa84828562000231565b509392505050565b600082601f830112620002ca57620002c96200015c565b5b8151620002dc84826020860162000267565b91505092915050565b600073ffffffffffffffffffffffffffffffffffffffff82169050919050565b60006200031282620002e5565b9050919050565b620003248162000305565b81146200033057600080fd5b50565b600081519050620003448162000319565b92915050565b6000806040838503121562000364576200036362000152565b5b600083015167ffffffffffffffff81111562000385576200038462000157565b5b6200039385828601620002b2565b9250506020620003a68582860162000333565b9150509250929050565b7f4e487b7100000000000000000000000000000000000000000000000000000000600052602260045260246000fd5b60006002820490506001821680620003f857607f821691505b602082108114156200040f576200040e620003b0565b5b50919050565b61149d80620004256000396000f3fe6080604052600436106100555760003560e01c80631216f0351461005a578063187a322c14610097578063457c6e43146100c75780637e0892fb146100f2578063914d192f1461012f578063ed04e4501461015f575b600080fd5b34801561006657600080fd5b50610081600480360381019061007c9190610be8565b61018a565b60405161008e9190610cae565b60405180910390f35b6100b160048036038101906100ac9190610e05565b61025e565b6040516100be9190610e7c565b60405180910390f35b3480156100d357600080fd5b506100dc6105ca565b6040516100e99190610ea6565b60405180910390f35b3480156100fe57600080fd5b5061011960048036038101906101149190610e05565b6105ee565b6040516101269190610f83565b60405180910390f35b61014960048036038101906101449190610fd1565b61071e565b6040516101569190610e7c565b60405180910390f35b34801561016b57600080fd5b50610174610941565b6040516101819190610cae565b60405180910390f35b6060600260008373ffffffffffffffffffffffffffffffffffffffff1673ffffffffffffffffffffffffffffffffffffffff16815260200190815260200160002060020180546101d99061106f565b80601f01602080910402602001604051908101604052809291908181526020018280546102059061106f565b80156102525780601f1061022757610100808354040283529160200191610252565b820191906000526020600020905b81548152906001019060200180831161023557829003601f168201915b50505050509050919050565b6000600260003373ffffffffffffffffffffffffffffffffffffffff1673ffffffffffffffffffffffffffffffffffffffff16815260200190815260200160002060050160009054906101000a900460ff166102ef576040517f08c379a00000000000000000000000000000000000000000000000000000000081526004016102e6906110ed565b60405180910390fd5b600260003373ffffffffffffffffffffffffffffffffffffffff1673ffffffffffffffffffffffffffffffffffffffff1681526020019081526020016000206007018260405161033f9190611149565b908152602001604051809103902060020160009054906101000a900460ff1661039d576040517f08c379a0000000000000000000000000000000000000000000000000000000008152600401610394906111ac565b60405180910390fd5b600034116103e0576040517f08c379a00000000000000000000000000000000000000000000000000000000081526004016103d790611218565b60405180910390fd5b6000600260008573ffffffffffffffffffffffffffffffffffffffff1673ffffffffffffffffffffffffffffffffffffffff1681526020019081526020016000206003015490506000600260008673ffffffffffffffffffffffffffffffffffffffff1673ffffffffffffffffffffffffffffffffffffffff16815260200190815260200160002060010160009054906101000a900473ffffffffffffffffffffffffffffffffffffffff1690506000600a60648461049f9190611296565b6104a991906112c7565b9050600081846104b99190611321565b90506104e560008054906101000a900473ffffffffffffffffffffffffffffffffffffffff16836109cf565b506104f083826109cf565b506001600260008973ffffffffffffffffffffffffffffffffffffffff1673ffffffffffffffffffffffffffffffffffffffff168152602001908152602001600020600701876040516105439190611149565b908152602001604051809103902060010160008282546105639190611355565b925050819055503373ffffffffffffffffffffffffffffffffffffffff167f344d47cdaf9777c5d92e01410e5ca57bd933dd69210505d4d81dafc0140728378783426040516105b4939291906113ba565b60405180910390a2600194505050505092915050565b60008054906101000a900473ffffffffffffffffffffffffffffffffffffffff1681565b6105f6610ab0565b600260008473ffffffffffffffffffffffffffffffffffffffff1673ffffffffffffffffffffffffffffffffffffffff168152602001908152602001600020600701826040516106469190611149565b908152602001604051809103902060405180606001604052908160008201805461066f9061106f565b80601f016020809104026020016040519081016040528092919081815260200182805461069b9061106f565b80156106e85780601f106106bd576101008083540402835291602001916106e8565b820191906000526020600020905b8154815290600101906020018083116106cb57829003601f168201915b50505050508152602001600182015481526020016002820160009054906101000a900460ff161515151581525050905092915050565b60008060009050600060405180606001604052808581526020018381526020016001151581525090506000600260003373ffffffffffffffffffffffffffffffffffffffff1673ffffffffffffffffffffffffffffffffffffffff1681526020019081526020016000209050338160000160006101000a81548173ffffffffffffffffffffffffffffffffffffffff021916908373ffffffffffffffffffffffffffffffffffffffff160217905550868160010160006101000a81548173ffffffffffffffffffffffffffffffffffffffff021916908373ffffffffffffffffffffffffffffffffffffffff16021790555084816002019080519060200190610828929190610ad3565b5085816003018190555082816004018190555060018160050160006101000a81548160ff0219169083151502179055504281600601819055508181600701866040516108749190611149565b9081526020016040518091039020600082015181600001908051906020019061089e929190610ad3565b506020820151816001015560408201518160020160006101000a81548160ff0219169083151502179055509050508673ffffffffffffffffffffffffffffffffffffffff163373ffffffffffffffffffffffffffffffffffffffff167f681ddc67ea8796d2489979f5fc2ea2eb0f2d44ff3f11f061a191928a1f3d9a06884260405161092b9291906113f8565b60405180910390a3600193505050509392505050565b6001805461094e9061106f565b80601f016020809104026020016040519081016040528092919081815260200182805461097a9061106f565b80156109c75780601f1061099c576101008083540402835291602001916109c7565b820191906000526020600020905b8154815290600101906020018083116109aa57829003601f168201915b505050505081565b60006109db8383610a35565b8273ffffffffffffffffffffffffffffffffffffffff167fdf273cb619d95419a9cd0ec88123a0538c85064229baa6363788f743fff90deb8342604051610a239291906113f8565b60405180910390a26001905092915050565b60008273ffffffffffffffffffffffffffffffffffffffff1682604051610a5b90611452565b60006040518083038185875af1925050503d8060008114610a98576040519150601f19603f3d011682016040523d82523d6000602084013e610a9d565b606091505b5050905080610aab57600080fd5b505050565b604051806060016040528060608152602001600081526020016000151581525090565b828054610adf9061106f565b90600052602060002090601f016020900481019282610b015760008555610b48565b82601f10610b1a57805160ff1916838001178555610b48565b82800160010185558215610b48579182015b82811115610b47578251825591602001919060010190610b2c565b5b509050610b559190610b59565b5090565b5b80821115610b72576000816000905550600101610b5a565b5090565b6000604051905090565b600080fd5b600080fd5b600073ffffffffffffffffffffffffffffffffffffffff82169050919050565b6000610bb582610b8a565b9050919050565b610bc581610baa565b8114610bd057600080fd5b50565b600081359050610be281610bbc565b92915050565b600060208284031215610bfe57610bfd610b80565b5b6000610c0c84828501610bd3565b91505092915050565b600081519050919050565b600082825260208201905092915050565b60005b83811015610c4f578082015181840152602081019050610c34565b83811115610c5e576000848401525b50505050565b6000601f19601f8301169050919050565b6000610c8082610c15565b610c8a8185610c20565b9350610c9a818560208601610c31565b610ca381610c64565b840191505092915050565b60006020820190508181036000830152610cc88184610c75565b905092915050565b600080fd5b600080fd5b7f4e487b7100000000000000000000000000000000000000000000000000000000600052604160045260246000fd5b610d1282610c64565b810181811067ffffffffffffffff82111715610d3157610d30610cda565b5b80604052505050565b6000610d44610b76565b9050610d508282610d09565b919050565b600067ffffffffffffffff821115610d7057610d6f610cda565b5b610d7982610c64565b9050602081019050919050565b82818337600083830152505050565b6000610da8610da384610d55565b610d3a565b905082815260208101848484011115610dc457610dc3610cd5565b5b610dcf848285610d86565b509392505050565b600082601f830112610dec57610deb610cd0565b5b8135610dfc848260208601610d95565b91505092915050565b60008060408385031215610e1c57610e1b610b80565b5b6000610e2a85828601610bd3565b925050602083013567ffffffffffffffff811115610e4b57610e4a610b85565b5b610e5785828601610dd7565b9150509250929050565b60008115159050919050565b610e7681610e61565b82525050565b6000602082019050610e916000830184610e6d565b92915050565b610ea081610baa565b82525050565b6000602082019050610ebb6000830184610e97565b92915050565b600082825260208201905092915050565b6000610edd82610c15565b610ee78185610ec1565b9350610ef7818560208601610c31565b610f0081610c64565b840191505092915050565b6000819050919050565b610f1e81610f0b565b82525050565b610f2d81610e61565b82525050565b60006060830160008301518482036000860152610f508282610ed2565b9150506020830151610f656020860182610f15565b506040830151610f786040860182610f24565b508091505092915050565b60006020820190508181036000830152610f9d8184610f33565b905092915050565b610fae81610f0b565b8114610fb957600080fd5b50565b600081359050610fcb81610fa5565b92915050565b600080600060608486031215610fea57610fe9610b80565b5b6000610ff886828701610bd3565b935050602061100986828701610fbc565b925050604084013567ffffffffffffffff81111561102a57611029610b85565b5b61103686828701610dd7565b9150509250925092565b7f4e487b7100000000000000000000000000000000000000000000000000000000600052602260045260246000fd5b6000600282049050600182168061108757607f821691505b6020821081141561109b5761109a611040565b5b50919050565b7f596f7520646f6e742068617665206120636f6e74726163740000000000000000600082015250565b60006110d7601883610c20565b91506110e2826110a1565b602082019050919050565b60006020820190508181036000830152611106816110ca565b9050919050565b600081905092915050565b600061112382610c15565b61112d818561110d565b935061113d818560208601610c31565b80840191505092915050565b60006111558284611118565b915081905092915050565b7f596f7520646f6e74206861766520415049000000000000000000000000000000600082015250565b6000611196601183610c20565b91506111a182611160565b602082019050919050565b600060208201905081810360008301526111c581611189565b9050919050565b7f4574686572732063616e6e6f74206265207a65726f2100000000000000000000600082015250565b6000611202601683610c20565b915061120d826111cc565b602082019050919050565b60006020820190508181036000830152611231816111f5565b9050919050565b7f4e487b7100000000000000000000000000000000000000000000000000000000600052601260045260246000fd5b7f4e487b7100000000000000000000000000000000000000000000000000000000600052601160045260246000fd5b60006112a182610f0b565b91506112ac83610f0b565b9250826112bc576112bb611238565b5b828204905092915050565b60006112d282610f0b565b91506112dd83610f0b565b9250817fffffffffffffffffffffffffffffffffffffffffffffffffffffffffffffffff048311821515161561131657611315611267565b5b828202905092915050565b600061132c82610f0b565b915061133783610f0b565b92508282101561134a57611349611267565b5b828203905092915050565b600061136082610f0b565b915061136b83610f0b565b9250827fffffffffffffffffffffffffffffffffffffffffffffffffffffffffffffffff038211156113a05761139f611267565b5b828201905092915050565b6113b481610f0b565b82525050565b600060608201905081810360008301526113d48186610c75565b90506113e360208301856113ab565b6113f060408301846113ab565b949350505050565b600060408201905061140d60008301856113ab565b61141a60208301846113ab565b9392505050565b600081905092915050565b50565b600061143c600083611421565b91506114478261142c565b600082019050919050565b600061145d8261142f565b915081905091905056fea2646970667358221220f4ba0e6c1929530000b7b7ce85975f5958e68fdf33e6c60953fc7f04d96af25864736f6c634300080b0033",
  "immutableReferences": {},
  "source": "// SPDX-License-Identifier: MIT\n\npragma solidity ^0.8.0;\n\ncontract ApiContract {\n    address public intermediaryAddress;\n    string public intermediaryName;\n\n    event Sale(\n        address indexed buyer,\n        address indexed seller,\n        uint256 amount,\n        uint256 timestamp\n    );\n\n    event Withdrawal(\n        address indexed receiver,\n        uint256 amount,\n        uint256 timestamp\n    );\n\n    event MakeRequest(\n        address indexed buyer,\n        string apiName,\n        uint256 amount,\n        uint256 timestamp\n    );\n\n    struct ApiStruct {\n        string apiName;\n        uint256 numberOfRequests;\n        bool exists;\n    }\n\n    struct SaleStruct {\n        address buyer;\n        address seller;\n        string apiName;\n        uint256 priceOfRequests;\n        uint256 numberOfRequests;\n        bool exists;\n        uint256 timestamp;\n        mapping(string => ApiStruct) apis;\n    }\n\n    mapping(address => SaleStruct) sales;\n\n    constructor(string memory _intermediaryName, address _intermediaryAddress) {\n        intermediaryName = _intermediaryName;\n        intermediaryAddress = _intermediaryAddress;\n    }\n\n    function createSale(\n        address _seller,\n        uint256 _priceOfRequests,\n        string memory _apiName\n    ) public payable returns (bool success)\n    {\n        uint256 _numberOfRequests = 0;\n\n        ApiStruct memory api = ApiStruct(\n            _apiName,\n            _numberOfRequests,\n            true\n        );\n\n        SaleStruct storage sale = sales[msg.sender];\n        sale.buyer = msg.sender;\n        sale.seller = _seller;\n        sale.apiName = _apiName;\n        sale.priceOfRequests = _priceOfRequests;\n        sale.numberOfRequests = _numberOfRequests;\n        sale.exists = true;\n        sale.timestamp = block.timestamp;\n        sale.apis[_apiName] = api;\n\n        emit Sale(msg.sender, _seller, _priceOfRequests, block.timestamp);\n\n        return true;\n    }\n\n    function makeRequest(address key, string memory _apiName) public payable returns (bool success) {\n        require(sales[msg.sender].exists, \"You dont have a contract\");\n        require(sales[msg.sender].apis[_apiName].exists, \"You dont have API\");\n        require(msg.value > 0, \"Ethers cannot be zero!\");\n        uint256 priceOfRequests = sales[key].priceOfRequests;\n        address seller = sales[key].seller;\n\n        uint256 tax = (priceOfRequests / 100) * 10;\n        uint256 finalValue = priceOfRequests - tax;\n\n        withdrawMoneyTo(intermediaryAddress, tax);\n        withdrawMoneyTo(seller, finalValue);\n\n        sales[key].apis[_apiName].numberOfRequests += 1;\n\n        emit MakeRequest(msg.sender, _apiName, finalValue, block.timestamp);\n\n        return true;\n    }\n\n    // TODO: Testar com msg.sender, se der ruim voltar como argumento\n    function inspectSaleApi(address key, string memory apiName) public view returns (ApiStruct memory) {\n        return (sales[key].apis[apiName]);\n    }\n\n    function inspectSale(address key) public view returns (string memory apiName) {\n        return sales[key].apiName;\n    }\n\n    // function inspectSaleLength(address key) public view returns (uint) {\n    //     return sales[key].length;\n    // }\n\n    // function inspectSaleSpecific(address key, string calldata apiName) public view returns(SaleStruct memory) {\n    //     uint256 saleLength = inspectSaleLength(key);\n    //     for (uint i=0; i < saleLength; i++){\n    //         if(keccak256(sales[key][i].apiName) == keccak256(apiName)) {\n    //             return sales[key][i];\n    //         }          \n    //     }  \n    // }\n\n    // Sends ethers to a specified address\n    function _payTo(address _to, uint256 _amount) internal {\n        (bool success1, ) = payable(_to).call{value: _amount}(\"\");\n        require(success1);\n    }\n\n    function withdrawMoneyTo(address receiver, uint256 amount)\n        internal\n        returns (bool success)\n    {\n\n        _payTo(receiver, amount);\n\n        // Captures transfer data on event\n        emit Withdrawal(receiver, amount, block.timestamp);\n        return true;\n    }\n\n}",
  "sourcePath": "/home/kainan/Documents/Projects/tcc-tets/tcc-python/api-monetization-backend-python/contracts/ApiContract.sol",
  "compiler": {
    "name": "solc",
    "version": "0.8.11+commit.d7f03943.Emscripten.clang"
  },
  "schemaVersion": "3.4.5",
  "updatedAt": "2022-09-08T01:52:07.094Z",
  "networkType": "ethereum",
  "devdoc": {
    "kind": "dev",
    "methods": {},
    "version": 1
  },
  "userdoc": {
    "kind": "user",
    "methods": {},
    "version": 1
  }
}