{
  "contractName": "ApiContract",
  "abi": [
    {
      "inputs": [
        {
          "internalType": "string",
          "name": "_intermediaryName",
          "type": "string"
        },
        {
          "internalType": "address",
          "name": "_intermediaryAddress",
          "type": "address"
        }
      ],
      "stateMutability": "nonpayable",
      "type": "constructor"
    },
    {
      "anonymous": false,
      "inputs": [
        {
          "indexed": true,
          "internalType": "address",
          "name": "buyer",
          "type": "address"
        },
        {
          "indexed": true,
          "internalType": "address",
          "name": "seller",
          "type": "address"
        },
        {
          "indexed": false,
          "internalType": "uint256",
          "name": "amount",
          "type": "uint256"
        },
        {
          "indexed": false,
          "internalType": "uint256",
          "name": "timestamp",
          "type": "uint256"
        }
      ],
      "name": "Sale",
      "type": "event"
    },
    {
      "anonymous": false,
      "inputs": [
        {
          "indexed": true,
          "internalType": "address",
          "name": "receiver",
          "type": "address"
        },
        {
          "indexed": false,
          "internalType": "uint256",
          "name": "amount",
          "type": "uint256"
        },
        {
          "indexed": false,
          "internalType": "uint256",
          "name": "timestamp",
          "type": "uint256"
        }
      ],
      "name": "Withdrawal",
      "type": "event"
    },
    {
      "inputs": [],
      "name": "intermediaryAddress",
      "outputs": [
        {
          "internalType": "address",
          "name": "",
          "type": "address"
        }
      ],
      "stateMutability": "view",
      "type": "function",
      "constant": true
    },
    {
      "inputs": [],
      "name": "intermediaryName",
      "outputs": [
        {
          "internalType": "string",
          "name": "",
          "type": "string"
        }
      ],
      "stateMutability": "view",
      "type": "function",
      "constant": true
    },
    {
      "inputs": [
        {
          "internalType": "address",
          "name": "_seller",
          "type": "address"
        },
        {
          "internalType": "uint256",
          "name": "_priceOfRequests",
          "type": "uint256"
        },
        {
          "internalType": "string",
          "name": "_apiName",
          "type": "string"
        }
      ],
      "name": "createSale",
      "outputs": [
        {
          "internalType": "bool",
          "name": "success",
          "type": "bool"
        }
      ],
      "stateMutability": "payable",
      "type": "function",
      "payable": true
    },
    {
      "inputs": [
        {
          "internalType": "address",
          "name": "key",
          "type": "address"
        },
        {
          "internalType": "string",
          "name": "_apiName",
          "type": "string"
        }
      ],
      "name": "makeRequest",
      "outputs": [
        {
          "internalType": "bool",
          "name": "success",
          "type": "bool"
        }
      ],
      "stateMutability": "payable",
      "type": "function",
      "payable": true
    },
    {
      "inputs": [
        {
          "internalType": "address",
          "name": "key",
          "type": "address"
        },
        {
          "internalType": "string",
          "name": "apiName",
          "type": "string"
        }
      ],
      "name": "inspectSaleApi",
      "outputs": [
        {
          "components": [
            {
              "internalType": "string",
              "name": "apiName",
              "type": "string"
            },
            {
              "internalType": "uint256",
              "name": "numberOfRequests",
              "type": "uint256"
            }
          ],
          "internalType": "struct ApiContract.ApiStruct",
          "name": "",
          "type": "tuple"
        }
      ],
      "stateMutability": "view",
      "type": "function",
      "constant": true
    },
    {
      "inputs": [
        {
          "internalType": "address",
          "name": "key",
          "type": "address"
        }
      ],
      "name": "inspectSale",
      "outputs": [
        {
          "internalType": "string",
          "name": "apiName",
          "type": "string"
        }
      ],
      "stateMutability": "view",
      "type": "function",
      "constant": true
    }
  ],
  "bytecode": "0x60806040523480156200001157600080fd5b50604051620016a3380380620016a383398181016040528101906200003791906200034a565b81600190805190602001906200004f92919062000098565b50806000806101000a81548173ffffffffffffffffffffffffffffffffffffffff021916908373ffffffffffffffffffffffffffffffffffffffff160217905550505062000415565b828054620000a690620003df565b90600052602060002090601f016020900481019282620000ca576000855562000116565b82601f10620000e557805160ff191683800117855562000116565b8280016001018555821562000116579182015b8281111562000115578251825591602001919060010190620000f8565b5b50905062000125919062000129565b5090565b5b80821115620001445760008160009055506001016200012a565b5090565b6000604051905090565b600080fd5b600080fd5b600080fd5b600080fd5b6000601f19601f8301169050919050565b7f4e487b7100000000000000000000000000000000000000000000000000000000600052604160045260246000fd5b620001b18262000166565b810181811067ffffffffffffffff82111715620001d357620001d262000177565b5b80604052505050565b6000620001e862000148565b9050620001f68282620001a6565b919050565b600067ffffffffffffffff82111562000219576200021862000177565b5b620002248262000166565b9050602081019050919050565b60005b838110156200025157808201518184015260208101905062000234565b8381111562000261576000848401525b50505050565b60006200027e6200027884620001fb565b620001dc565b9050828152602081018484840111156200029d576200029c62000161565b5b620002aa84828562000231565b509392505050565b600082601f830112620002ca57620002c96200015c565b5b8151620002dc84826020860162000267565b91505092915050565b600073ffffffffffffffffffffffffffffffffffffffff82169050919050565b60006200031282620002e5565b9050919050565b620003248162000305565b81146200033057600080fd5b50565b600081519050620003448162000319565b92915050565b6000806040838503121562000364576200036362000152565b5b600083015167ffffffffffffffff81111562000385576200038462000157565b5b6200039385828601620002b2565b9250506020620003a68582860162000333565b9150509250929050565b7f4e487b7100000000000000000000000000000000000000000000000000000000600052602260045260246000fd5b60006002820490506001821680620003f857607f821691505b602082108114156200040f576200040e620003b0565b5b50919050565b61127e80620004256000396000f3fe6080604052600436106100555760003560e01c80631216f0351461005a578063187a322c14610097578063457c6e43146100c75780637e0892fb146100f2578063914d192f1461012f578063ed04e4501461015f575b600080fd5b34801561006657600080fd5b50610081600480360381019061007c9190610a95565b61018a565b60405161008e9190610b5b565b60405180910390f35b6100b160048036038101906100ac9190610cb2565b61025e565b6040516100be9190610d29565b60405180910390f35b3480156100d357600080fd5b506100dc6104c4565b6040516100e99190610d53565b60405180910390f35b3480156100fe57600080fd5b5061011960048036038101906101149190610cb2565b6104e8565b6040516101269190610e0e565b60405180910390f35b61014960048036038101906101449190610e5c565b6105fd565b6040516101569190610d29565b60405180910390f35b34801561016b57600080fd5b506101746107f7565b6040516101819190610b5b565b60405180910390f35b6060600260008373ffffffffffffffffffffffffffffffffffffffff1673ffffffffffffffffffffffffffffffffffffffff16815260200190815260200160002060020180546101d990610efa565b80601f016020809104026020016040519081016040528092919081815260200182805461020590610efa565b80156102525780601f1061022757610100808354040283529160200191610252565b820191906000526020600020905b81548152906001019060200180831161023557829003601f168201915b50505050509050919050565b6000600260003373ffffffffffffffffffffffffffffffffffffffff1673ffffffffffffffffffffffffffffffffffffffff16815260200190815260200160002060050160009054906101000a900460ff166102ef576040517f08c379a00000000000000000000000000000000000000000000000000000000081526004016102e690610f78565b60405180910390fd5b60003411610332576040517f08c379a000000000000000000000000000000000000000000000000000000000815260040161032990610fe4565b60405180910390fd5b6000600260008573ffffffffffffffffffffffffffffffffffffffff1673ffffffffffffffffffffffffffffffffffffffff1681526020019081526020016000206003015490506000600260008673ffffffffffffffffffffffffffffffffffffffff1673ffffffffffffffffffffffffffffffffffffffff16815260200190815260200160002060010160009054906101000a900473ffffffffffffffffffffffffffffffffffffffff1690506000600a6064846103f19190611062565b6103fb9190611093565b905061042760008054906101000a900473ffffffffffffffffffffffffffffffffffffffff1682610885565b5061043d82828561043891906110ed565b610885565b506001600260008873ffffffffffffffffffffffffffffffffffffffff1673ffffffffffffffffffffffffffffffffffffffff16815260200190815260200160002060070186604051610490919061115d565b908152602001604051809103902060010160008282546104b09190611174565b925050819055506001935050505092915050565b60008054906101000a900473ffffffffffffffffffffffffffffffffffffffff1681565b6104f0610966565b600260008473ffffffffffffffffffffffffffffffffffffffff1673ffffffffffffffffffffffffffffffffffffffff16815260200190815260200160002060070182604051610540919061115d565b908152602001604051809103902060405180604001604052908160008201805461056990610efa565b80601f016020809104026020016040519081016040528092919081815260200182805461059590610efa565b80156105e25780601f106105b7576101008083540402835291602001916105e2565b820191906000526020600020905b8154815290600101906020018083116105c557829003601f168201915b50505050508152602001600182015481525050905092915050565b60008060009050600060405180604001604052808581526020018381525090506000600260003373ffffffffffffffffffffffffffffffffffffffff1673ffffffffffffffffffffffffffffffffffffffff1681526020019081526020016000209050338160000160006101000a81548173ffffffffffffffffffffffffffffffffffffffff021916908373ffffffffffffffffffffffffffffffffffffffff160217905550868160010160006101000a81548173ffffffffffffffffffffffffffffffffffffffff021916908373ffffffffffffffffffffffffffffffffffffffff160217905550848160020190805190602001906106fe929190610980565b5085816003018190555082816004018190555060018160050160006101000a81548160ff02191690831515021790555042816006018190555081816007018660405161074a919061115d565b90815260200160405180910390206000820151816000019080519060200190610774929190610980565b50602082015181600101559050508673ffffffffffffffffffffffffffffffffffffffff163373ffffffffffffffffffffffffffffffffffffffff167f681ddc67ea8796d2489979f5fc2ea2eb0f2d44ff3f11f061a191928a1f3d9a0688426040516107e19291906111d9565b60405180910390a3600193505050509392505050565b6001805461080490610efa565b80601f016020809104026020016040519081016040528092919081815260200182805461083090610efa565b801561087d5780601f106108525761010080835404028352916020019161087d565b820191906000526020600020905b81548152906001019060200180831161086057829003601f168201915b505050505081565b600061089183836108eb565b8273ffffffffffffffffffffffffffffffffffffffff167fdf273cb619d95419a9cd0ec88123a0538c85064229baa6363788f743fff90deb83426040516108d99291906111d9565b60405180910390a26001905092915050565b60008273ffffffffffffffffffffffffffffffffffffffff168260405161091190611233565b60006040518083038185875af1925050503d806000811461094e576040519150601f19603f3d011682016040523d82523d6000602084013e610953565b606091505b505090508061096157600080fd5b505050565b604051806040016040528060608152602001600081525090565b82805461098c90610efa565b90600052602060002090601f0160209004810192826109ae57600085556109f5565b82601f106109c757805160ff19168380011785556109f5565b828001600101855582156109f5579182015b828111156109f45782518255916020019190600101906109d9565b5b509050610a029190610a06565b5090565b5b80821115610a1f576000816000905550600101610a07565b5090565b6000604051905090565b600080fd5b600080fd5b600073ffffffffffffffffffffffffffffffffffffffff82169050919050565b6000610a6282610a37565b9050919050565b610a7281610a57565b8114610a7d57600080fd5b50565b600081359050610a8f81610a69565b92915050565b600060208284031215610aab57610aaa610a2d565b5b6000610ab984828501610a80565b91505092915050565b600081519050919050565b600082825260208201905092915050565b60005b83811015610afc578082015181840152602081019050610ae1565b83811115610b0b576000848401525b50505050565b6000601f19601f8301169050919050565b6000610b2d82610ac2565b610b378185610acd565b9350610b47818560208601610ade565b610b5081610b11565b840191505092915050565b60006020820190508181036000830152610b758184610b22565b905092915050565b600080fd5b600080fd5b7f4e487b7100000000000000000000000000000000000000000000000000000000600052604160045260246000fd5b610bbf82610b11565b810181811067ffffffffffffffff82111715610bde57610bdd610b87565b5b80604052505050565b6000610bf1610a23565b9050610bfd8282610bb6565b919050565b600067ffffffffffffffff821115610c1d57610c1c610b87565b5b610c2682610b11565b9050602081019050919050565b82818337600083830152505050565b6000610c55610c5084610c02565b610be7565b905082815260208101848484011115610c7157610c70610b82565b5b610c7c848285610c33565b509392505050565b600082601f830112610c9957610c98610b7d565b5b8135610ca9848260208601610c42565b91505092915050565b60008060408385031215610cc957610cc8610a2d565b5b6000610cd785828601610a80565b925050602083013567ffffffffffffffff811115610cf857610cf7610a32565b5b610d0485828601610c84565b9150509250929050565b60008115159050919050565b610d2381610d0e565b82525050565b6000602082019050610d3e6000830184610d1a565b92915050565b610d4d81610a57565b82525050565b6000602082019050610d686000830184610d44565b92915050565b600082825260208201905092915050565b6000610d8a82610ac2565b610d948185610d6e565b9350610da4818560208601610ade565b610dad81610b11565b840191505092915050565b6000819050919050565b610dcb81610db8565b82525050565b60006040830160008301518482036000860152610dee8282610d7f565b9150506020830151610e036020860182610dc2565b508091505092915050565b60006020820190508181036000830152610e288184610dd1565b905092915050565b610e3981610db8565b8114610e4457600080fd5b50565b600081359050610e5681610e30565b92915050565b600080600060608486031215610e7557610e74610a2d565b5b6000610e8386828701610a80565b9350506020610e9486828701610e47565b925050604084013567ffffffffffffffff811115610eb557610eb4610a32565b5b610ec186828701610c84565b9150509250925092565b7f4e487b7100000000000000000000000000000000000000000000000000000000600052602260045260246000fd5b60006002820490506001821680610f1257607f821691505b60208210811415610f2657610f25610ecb565b5b50919050565b7f56414920434f4d50524120412041504920464450000000000000000000000000600082015250565b6000610f62601483610acd565b9150610f6d82610f2c565b602082019050919050565b60006020820190508181036000830152610f9181610f55565b9050919050565b7f4574686572732063616e6e6f74206265207a65726f2100000000000000000000600082015250565b6000610fce601683610acd565b9150610fd982610f98565b602082019050919050565b60006020820190508181036000830152610ffd81610fc1565b9050919050565b7f4e487b7100000000000000000000000000000000000000000000000000000000600052601260045260246000fd5b7f4e487b7100000000000000000000000000000000000000000000000000000000600052601160045260246000fd5b600061106d82610db8565b915061107883610db8565b92508261108857611087611004565b5b828204905092915050565b600061109e82610db8565b91506110a983610db8565b9250817fffffffffffffffffffffffffffffffffffffffffffffffffffffffffffffffff04831182151516156110e2576110e1611033565b5b828202905092915050565b60006110f882610db8565b915061110383610db8565b92508282101561111657611115611033565b5b828203905092915050565b600081905092915050565b600061113782610ac2565b6111418185611121565b9350611151818560208601610ade565b80840191505092915050565b6000611169828461112c565b915081905092915050565b600061117f82610db8565b915061118a83610db8565b9250827fffffffffffffffffffffffffffffffffffffffffffffffffffffffffffffffff038211156111bf576111be611033565b5b828201905092915050565b6111d381610db8565b82525050565b60006040820190506111ee60008301856111ca565b6111fb60208301846111ca565b9392505050565b600081905092915050565b50565b600061121d600083611202565b91506112288261120d565b600082019050919050565b600061123e82611210565b915081905091905056fea264697066735822122013d099c06e4b9c3d57321a23ec8083852110c6ac87547eb9fe945285fd1c4ee064736f6c634300080b0033",
  "immutableReferences": {},
  "source": "// SPDX-License-Identifier: MIT\n\npragma solidity ^0.8.0;\n\ncontract ApiContract {\n    address public intermediaryAddress;\n    string public intermediaryName;\n\n    event Sale(\n        address indexed buyer,\n        address indexed seller,\n        uint256 amount,\n        uint256 timestamp\n    );\n\n    event Withdrawal(\n        address indexed receiver,\n        uint256 amount,\n        uint256 timestamp\n    );\n\n    struct ApiStruct {\n        string apiName;\n        uint256 numberOfRequests;\n    }\n\n    struct SaleStruct {\n        address buyer;\n        address seller;\n        string apiName;\n        uint256 priceOfRequests;\n        uint256 numberOfRequests;\n        bool exists;\n        uint256 timestamp;\n        mapping(string => ApiStruct) apis;\n    }\n\n    mapping(address => SaleStruct) sales;\n\n    constructor(string memory _intermediaryName, address _intermediaryAddress) {\n        intermediaryName = _intermediaryName;\n        intermediaryAddress = _intermediaryAddress;\n    }\n\n    function createSale(\n        address _seller,\n        uint256 _priceOfRequests,\n        string memory _apiName\n    ) public payable returns (bool success)\n    {\n        uint256 _numberOfRequests = 0;\n\n        ApiStruct memory api = ApiStruct(\n            _apiName,\n            _numberOfRequests\n        );\n\n        SaleStruct storage sale = sales[msg.sender];\n        sale.buyer = msg.sender;\n        sale.seller = _seller;\n        sale.apiName = _apiName;\n        sale.priceOfRequests = _priceOfRequests;\n        sale.numberOfRequests = _numberOfRequests;\n        sale.exists = true;\n        sale.timestamp = block.timestamp;\n        sale.apis[_apiName] = api;\n\n        emit Sale(msg.sender, _seller, _priceOfRequests, block.timestamp);\n\n        return true;\n    }\n\n    function makeRequest(address key, string memory _apiName) public payable returns (bool success) {\n        require(sales[msg.sender].exists, \"VAI COMPRA A API FDP\");\n        require(msg.value > 0, \"Ethers cannot be zero!\");\n        uint256 priceOfRequests = sales[key].priceOfRequests;\n        address seller = sales[key].seller;\n        uint256 tax = (priceOfRequests / 100) * 10;\n\n        withdrawMoneyTo(intermediaryAddress, tax);\n        withdrawMoneyTo(seller, priceOfRequests - tax);\n\n        sales[key].apis[_apiName].numberOfRequests += 1;\n        return true;\n    }\n\n    // TODO: Testar com msg.sender, se der ruim voltar como argumento\n    function inspectSaleApi(address key, string memory apiName) public view returns (ApiStruct memory) {\n        return (sales[key].apis[apiName]);\n    }\n\n    function inspectSale(address key) public view returns (string memory apiName) {\n        return sales[key].apiName;\n    }\n\n    // function inspectSaleLength(address key) public view returns (uint) {\n    //     return sales[key].length;\n    // }\n\n    // function inspectSaleSpecific(address key, string calldata apiName) public view returns(SaleStruct memory) {\n    //     uint256 saleLength = inspectSaleLength(key);\n    //     for (uint i=0; i < saleLength; i++){\n    //         if(keccak256(sales[key][i].apiName) == keccak256(apiName)) {\n    //             return sales[key][i];\n    //         }          \n    //     }  \n    // }\n\n    // Sends ethers to a specified address\n    function _payTo(address _to, uint256 _amount) internal {\n        (bool success1, ) = payable(_to).call{value: _amount}(\"\");\n        require(success1);\n    }\n\n    function withdrawMoneyTo(address receiver, uint256 amount)\n        internal\n        returns (bool success)\n    {\n\n        _payTo(receiver, amount);\n\n        // Captures transfer data on event\n        emit Withdrawal(receiver, amount, block.timestamp);\n        return true;\n    }\n\n}",
  "sourcePath": "/home/kainan/Documents/Projects/tcc-tets/tcc-python/api-monetization-backend-python/contracts/ApiContract.sol",
  "compiler": {
    "name": "solc",
    "version": "0.8.11+commit.d7f03943.Emscripten.clang"
  },
  "schemaVersion": "3.4.5",
  "updatedAt": "2022-09-04T22:32:13.747Z",
  "networkType": "ethereum",
  "devdoc": {
    "kind": "dev",
    "methods": {},
    "version": 1
  },
  "userdoc": {
    "kind": "user",
    "methods": {},
    "version": 1
  }
}